:10209B00E49000E8F0A3F01221371221CDEF60039A
:1020AB00121FDC1229031226FB122914D2AFD2CD38
:1020BB0090019AE0FF12000390019BE0FF120003D6
:1020CB0090019CE0FF120003C2CD1228D59000E8CE
:1020DB00E0FF04F0EF75F028A42402F9740035F04A
:1020EB00FA7B011217561218F69000E8E06406709E
:1020FB0001F090019CE0FF60139000E9E0FE04F01A
:10210B00EEB50708122687E49000E9F0E5A0F4FF8E
:10211B00900192E06F600EE5A0541F641F700312D4
:0C212B00279275C720122993B2B280A140
:10290300758900438E80758A67758C7ED28CD2A9B7
:0129130022A1
:03000B0002276168
:10276100C0E0C083C082C0D0C28C900161E0C3943C
:102771000774809480400C90014C7401F0B2B4C293
:102781009C8005900161E4F0D0D0D082D083D0E06C
:012791003215
:101B8E00410181004101610041014C004101803061
:1026FB00E5A2543F4440F5A2C2CD53873F75985095
:10270B00438E04438E0175D7E075D6FE90019AE097
:10271B006406700675D77075D6FF438E1053AFFBEA
:03272B00D2AC220B
:080003008F993099FDC299228A
:10272E009000F2EBF0A3EAF0A3E9F09000F2E0FBE8
:10273E00A3E0FAA3E0F91206A460179000F2A3E456
:10274E0075F001120746A9F0FA1206A4FF12000353
:03275E0080D922FD
:05298E00AE070200038A
:030023000224CFE5
:1024CF00C0E0C083C082C0D075D008C2AC30984580
:1024DF00C298900161E0601090019BE0FF90014D68
:1024EF00E0FE6F6003EE702D900161E0FF04F07469
:1024FF004D2FF582E43401F583E599F0900161E009
:10250F00C39414748094804002E4F0C28C758A677F
:10251F00758C7ED28C309902C299D2ACD0D0D08239
:05252F00D083D0E03272
:09296E002563256325630D0A00B1
:101B9E0043019A050100430195050100420193C0DE
:0B1BAE0000420190C200420198C400F8
:0E295300E4F5C7F5C5F5C675C3FF75C4FF22D0
:1025E6009001937A01799AE0FEA3E0FF7B019001C6
:0625F6004AE4F0A304F02A
:1025FC00AD07AC06C2AF75C78375C501ECF5C3AFAB
:10260C00058FC475C65A75C6A500E5C21206EA0D3B
:10261C00BD00010C740129F9E43AFA90014A74FFE7
:0F262C00F5F012073045F070D3122953D2AF22C8
:0527E400E0FEA3E0FF90
:1027E900AD07AC06C2AF75C783ECF5C3AF058FC49F
:1027F90075C78375C50375C65A75C6A500122953D1
:03280900D2AF2229
:0D263B00E0FEA3E0FF90014AE4F0A304F0EC
:10264800AD07AC06C2AF75C78375C502ECF5C3AF5D
:10265800058FC41206A4F5C275C65A75C6A5000D25
:10266800BD00010C740129F9E43AFA90014A74FF9B
:0F267800F5F012073045F070D3122953D2AF227C
:101FDC001225E690019AE0F470109001931227E418
:101FEC009001937A01799512263B9001907A0179B0
:101FFC009B1225ED90019BE0F4701090019012273C
:10200C00E49001907A01799612263B900198E0FEBB
:10201C00A3E0FF7B017A01799C1225F490019CE0EE
:10202C00F470159001981227E4900198E0FEA3E05B
:10203C00FF7A0179971226401225E6900190E0FE76
:10204C00A3E0FF7A01799B1225F4900198E0FEA39E
:10205C00E0FF7A01799C1225F49000F574FFF0A34F
:10206C007429F0A3746EF090019AE09000F8F0904F
:10207C00019BE09000F9F090019CE09000FAF07A5E
:0F208C000079EA120BD37B017A0079EA02272E42
:102792007A0179951223F1900190E0FEA3E0FF7B8C
:1027A200017A0179961223FB900198E0FEA3E0FFE3
:0927B2007B017A0179970223FBF7
:0A23F100900193E0FEA3E0FF7B01E2
:1023FB0090013EEEF0A3EFF0A3EBF0A3EAF0A3E91C
:01240B00F0E0
:10240C00A37403F0900143E0FF14F0EF60449001DB
:10241C003E1227E490013EE0FEA3E0FFA3E0FBA305
:10242C00E0FAA3E0F912264090013EE0FEA3E0FFA3
:10243C007B017A0179441225F4900140E0FBA3E082
:10244C00FAA3E0F91206A4FF900144E0B507B57FAA
:04245C0000227F01DA
:012460002259
:1021CD00E5A0F4900192F0E0FE541FFD70037F0135
:1021DD0022EE5480FF7E00700690019A7405F0EF98
:1021ED0064804E700690019A7406F0900192E0544E
:1021FD0060FF7E00700490019CF0EF64204E70052E
:10220D0090019C04F0EF64404E700690019C7403A5
:10221D00F0EF64604E700690019C7405F090019B88
:10222D00EDF07A01799A1223F1900190E0FEA3E08E
:10223D00FF7B017A01799B1223FB900198E0FEA3AD
:0E224D00E0FF7B017A01799C1223FB7F0022C7
:0C27BB00C2C51227C7C2C61227C7D2C56C
:1027C700E4FFFEE4FDFC0DBD00010CED64074C7059
:0C27D700F50FBF00010EEF64024E70E72A
:0127E30022D3
:10289B00D2C6D2C51227C720C602C322C2C6122770
:0D28AB00C730C602C322C2C61227C7D322FF
:082977001227BBD2C60227C7DC
:08297F001227BBC2C50227C7E5
:0F293500C2C51227C7D2C61227C2C2C50227C702
:10000E00C2C51227C7D2C61227C230C604C2C5C384
:05001E0022C2C5D3223F
:02283300AB07F1
:102835007A08AF021AEF6018C2C51227C7EB30E756
:1028450004D2C68002C2C6EB25E0FB1227C280E295
:02285500C2C5FA
:01285700225E
:102858007B08E4FAD2C6AF031BEF6012EA25E0FA60
:10286800C2C51227C230C6EEEA4401FA80E8C2C5E2
:02287800AF02AD
:01287A00223B
:1026C200900102EEF0A3EFF012289B4001227F88D6
:1026D20012283312000E4005122977C322900102FC
:1026E200E0FF12283312000E900102A3E0FF12282D
:0926F2003312000E122977D322E5
:072987007F367E220226C20A
:102914007F647E0012287B1229877F647E00022850
:012924007B37
:101C8A00900102EEF0A3EFF0A3EBF0A3EAF0A3E9D0
:101C9A00F012289B4001227F8812283312000E403E
:101CAA0002802A900102E0FF12283312000E9001EE
:101CBA0002A3E0FF12283312000E12297712289B82
:101CCA004001227F8912283312000E40051229771B
:101CDA00C322122858900104E0FBA3E0FAA3E0F91A
:101CEA00EF1206EA12297F122858900104E0FBA39A
:101CFA00E0FAA3E0F9900001EF1206FC12297F1224
:101D0A002858900104E0FBA3E0FAA3E0F99000024E
:101D1A00EF1206FC12297F122858900104E0FBA357
:101D2A00E0FAA3E0F9900003EF1206FC12297F12F1
:101D3A002858900104E0FBA3E0FAA3E0F99000041C
:101D4A00EF1206FC12297F122858900104E0FBA327
:101D5A00E0FAA3E0F9900005EF1206FC1229351209
:041D6A002977D322E0
:10280C00AD07AC06E4120342E4FBFA792F784312CD
:10281C00011E7B007AFF797F7847120227E4FBFACE
:07282C00793478C202002D8F
:1028B800AD07AC06E4120342E4FBFA79C878421289
:0D28C800011E7B007AFF797F78470202270E
:1018F6001229877B017A01798A7F007EE0121C8A91
:10190600505A90018AE0FCE41203479000EA12085C
:101916008690018BE0FCE41203479000EE120886E5
:1019260090018CE0FCE41203479000F212088690C6
:10193600018DE0FCE41203479000F6120886900140
:101946008EE0FCE41203479000FA12088690018F9D
:10195600E0FCE41203479000FE120886E4FFFE7DD9
:10196600807C439000EAE0F8A3E0F9A3E0FAA3E064
:10197600FB12011E9000EEE0F8A3E0F9A3E0FAA343
:10198600E0FB12002D12037B12280C900186120830
:1019960086E4FFFE7DF07C42900186E0F8A3E0F944
:1019A600A3E0FAA3E0FB1202C460044002801AE43A
:1019B600FFFE7D307CC2900186E0F8A3E0F9A3E04B
:1019C600FAA3E0FB1202C45004E4FEFF22E4FFFE89
:1019D6007D807C439000F6E0F8A3E0F9A3E0FAA34B
:1019E600E0FB12011E9000FAE0F8A3E0F9A3E0FA8A
:1019F600A3E0FB12002D12037B1228B8900182127D
:101A06000886E4FFFE7D207C41900186E0F8A3E095
:101A1600F9A3E0FAA3E0FB12011E9000C2120886A9
:101A2600E4FFFE7D207C41900182E0F8A3E0F9A36B
:101A3600E0FAA3E0FB12011E9000C6120886E4FF3E
:101A4600FE7DDC7CC39000C2E0F8A3E0F9A3E0FAD7
:101A5600A3E0FB1202C4600250149000C212089266
:101A6600000000009000C6120892000000007E00F0
:021A76007F01EE
:011A7800224B
:1029250000000000000000000000000000000000A2
:10246100E4900106F0A3F0A3F0A304F07590FF7FC0
:1024710004122944E4F5907FEE1229447590FF304F
:10248100903C900109E0640170341228EE9001083B
:10249100E004F07006900107E004F07F90122944F7
:1024A100D3900108E094C8900107E094004005E44E
:1024B100900109F0A290E433900106F080C1D2901E
:0D24C1007F641229447590FF900106E0FF32
:0124CE0022EB
:05253400900106EFF02C
:10253900C2AFE4A3F0A3F0900106E030E00FE4F5A8
:10254900907F011229447590FF7F3C800DE4F5903E
:102559007F3C1229447590FF7F011229449001069E
:10256900E0C313F0900108E004F07006900107E061
:1025790004F0C3900108E09408900107E09400403A
:03258900B6D2AF18
:01258C00222C
:0B120100900106EBF0A3EAF0A3E9F077
:10120C007590FF7F0A122944E4900109F0A3F0E4E1
:10121C0090010BF0A3F090010BE0FEA3E0FFC39450
:10122C0004EE94005027900106E0FBA3E0FAA3E043
:10123C002FF9EA3EFA1206A4C3131206EA90010C27
:10124C00E004F070D190010BE004F080C97590F0CF
:10125C007F011229447590FF7F01122944309013AD
:10126C00900106E0FBA3E0FAA3E0F91206A4448087
:10127C001206EA309118900106E0FBA3E0FAA3E015
:10128C002401F9E43AFA1206A444801206EA3092D8
:10129C0018900106E0FBA3E0FAA3E02402F9E43A7B
:1012AC00FA1206A444801206EA309318900106E064
:1012BC00FBA3E0FAA3E02403F9E43AFA1206A444EF
:1012CC00801206EA7F3C12294490010AE004F07077
:1012DC0006900109E004F0C390010AE09408900123
:1012EC0009E09400500302121BE4900109F0A3F0F2
:1012FC0090010BE4F0A37404F090010BE0FEA3E06A
:10130C00FFC39408EE94005027900106E0FBA3E085
:10131C00FAA3E02FF9EA3EFA1206A4C3131206EA66
:10132C0090010CE004F070D190010BE004F080C946
:10133C0075900F7F011229447590FF7F011229448B
:10134C00309418900106E0FBA3E0FAA3E02404F922
:10135C00E43AFA1206A444801206EA309518900179
:10136C0006E0FBA3E0FAA3E02405F9E43AFA12063E
:10137C00A444801206EA309618900106E0FBA3E024
:10138C00FAA3E02406F9E43AFA1206A44480120601
:10139C00EA309718900106E0FBA3E0FAA3E02407DB
:1013AC00F9E43AFA1206A444801206EA7F3C1229A8
:1013BC004490010AE004F07006900109E004F0C3C7
:1013CC0090010AE09408900109E094005003021285
:0113DC00FC14
:0113DD0022ED
:0B1756009000EAEBF0A3EAF0A3E9F03A
:1017610078EF7C007D017BFF7A2979257E007F0857
:1017710012067E78F77C007D017BFF7A29792D7E28
:10178100007F0812067E900103E4F0A37496F01224
:1017910024617FCC1225347F4412253490010374D7
:1017A100FFF5F012074645F0600C1228EE7F057E2A
:1017B1000012287B80E61224617FCC1225347FBE83
:1017C1001225347B017A0079EF1212017B017A0034
:1017D10079F7121201E4900105F0900105E0C3943C
:1017E100087480948040030218F5E0FD24EFF5822F
:1017F100E43400F583E0FE540F9000EEF074F72D11
:10180100F582E43400F583E0C454F0FFEEC4540FD4
:101811002FFF9000EDF0FCE41203479000FF120847
:1018210086900105E024F7F582E43400F583E0D3E6
:1018310094087480948040189000EDE0F404FFF067
:10184100E49FFDE49400FC1203429000FF1208861D
:101851009000FFE0F8A3E0F9A3E0FAA3E0FBC000E9
:10186100C001C002C0039000EEE0FCE4120347E4B3
:10187100FBFA7980783D12011ED003D002D001D04D
:101881000012002D9000FF120886E4FFFE7DF07C1F
:10189100429000FFE0F8A3E0F9A3E0FAA3E0FB1215
:1018A10002C45047E4FFFE7D487CC29000FFE0F88F
:1018B100A3E0F9A3E0FAA3E0FB1202C4602D402BE0
:1018C100E4FFFE7D207C419000FFE0F8A3E0F9A356
:1018D100E0FAA3E0FB12011E9000EAE0FBA3E4752D
:1018E100F004120746A9F0FA12083C900105E00441
:0418F100F00217DB0F
:0118F50022D0
:100FF10000000000000000000000000000000000F0
:1010010000C1814001C0804101C0804100C18140D7
:1010110001C0804100C1814000C1814001C08041C7
:1010210001C0804100C1814000C1814001C08041B7
:1010310000C1814001C0804101C0804100C18140A7
:1010410001C0804100C1814000C1814001C0804197
:1010510000C1814001C0804101C0804100C1814087
:1010610000C1814001C0804101C0804100C1814077
:1010710001C0804100C1814000C1814001C0804167
:1010810001C0804100C1814000C1814001C0804157
:1010910000C1814001C0804101C0804100C1814047
:1010A10000C1814001C0804101C0804100C1814037
:1010B10001C0804100C1814000C1814001C0804127
:1010C10000C1814001C0804101C0804100C1814017
:1010D10001C0804100C1814000C1814001C0804107
:1010E10001C0804100C1814000C1814001C08041F7
:1010F10000C1814001C0804101C0804100C18140E7
:1011010000C0C101C30302C2C60607C705C5C404A6
:10111100CC0C0DCD0FCFCE0E0ACACB0BC90908C816
:10112100D81819D91BDBDA1A1EDEDF1FDD1D1CDC06
:1011310014D4D515D71716D6D21213D311D1D01076
:10114100F03031F133F3F23236F6F737F53534F466
:101151003CFCFD3DFF3F3EFEFA3A3BFB39F9F838D6
:1011610028E8E929EB2B2AEAEE2E2FEF2DEDEC2CC6
:10117100E42425E527E7E62622E2E323E12120E036
:10118100A06061A163A3A26266A6A767A56564A426
:101191006CACAD6DAF6F6EAEAA6A6BAB69A9A86896
:1011A10078B8B979BB7B7ABABE7E7FBF7DBDBC7C86
:1011B100B47475B577B7B67672B2B373B17170B0F6
:1011C10050909151935352929656579755959454E6
:1011D1009C5C5D9D5F9F9E5E5A9A9B5B9959589856
:1011E100884849894B8B8A4A4E8E8F4F8D4D4C8C46
:1011F10044848545874746868242438341818040B6
:101BB900602800A2000000000000000000000000F2
:101BC900000000000000000000000000000000000C
:101BD90000000000000000000000000060A00002FA
:101BE90000000000000000000000000000000000EC
:101BF90000000000000000000000000000000000DC
:101C090000000000000000000000000000000000CB
:101C190000000000000000000000000000000000BB
:101C290000000000000000000000000000000000AB
:101C3900000000000000000000000000000000009B
:101C4900000000000000000000000000000000008B
:101C5900000000000000000000000000000000007B
:101C6900000000000000000000000000000000006B
:101C7900000000000000000000000000000000005B
:1028EE0090014CE0600E1215AAD29CE4900161F0AA
:0528FE0090014CF022E6
:102687009001617408F090019BE090014DF0A374F4
:1026970003F0E4A3F0A3F0A3F0A3740AF01222E777
:1026A700AD07AC06EC900153F0A3EFF01215AAD2D8
:0A26B7009CE4900161F090014CF0EA
:0126C10022F6
:1015AA00E490010CF0A3F078107C017D017BFF7AB6
:1015BA000F79F1FE7F1012067E1222E790010AEEE1
:1015CA00F0A3EFF0900161E0244BF9E43401A801A3
:1015DA00FC7D017B017A01790A7E007F02120AC82A
:1015EA00EF3395E04F600302175578627C017D0165
:1015FA007B017A01794DFE7F0212067EE490010E8C
:10160A00F090010EE0C3940874809480400302169F
:10161A0099E4A3F090010FE0FFC3940474809480CE
:10162A005047EF75F028A42402F582E43400F583CC
:10163A00C083C08290010EE0D082D08375F004127C
:10164A0008C3E0FCA3E0FDA3E0FEA3E0FF90010FC6
:10165A00E025E025E02410F582E43401F583120840
:10166A008690010FE004F080AB7B017A01791012B9
:10167A0013DE90010EE025E025E024A2F582E43491
:10168A0000F58312088690010EE004F002160B9012
:10169A000161E0FD9001247401F0A37401F0A374C8
:1016AA0064F0A37401F0A37401F0A3740DF07B013C
:1016BA007A01794E121D6EEF700302175590010DD3
:1016CA00E0FE600E900163E02480F0A3EEF07F0359
:1016DA0080020F0F90010CEFF07B017A017962FD15
:1016EA007C001222F890010AEEF0A3EFF090010AB2
:1016FA00E0FCA3E0FDECFFA3E0FE2462F582E43403
:10170A0001F583EFF074632EF582E43401F583ED7D
:10171A00F0D2CDE490010EF090010CE02402FFE437
:10172A0033FE90010EE0FDC39FEE6480F87480984A
:10173A00501774622DF582E43401F583E0FF12003C
:0B174A000390010EE004F080CFC2CD40
:011755002271
:0E1D6E00900120EBF0A3EAF0A3E9F0A3EDF062
:101D7C00900120E0FBA3E475F001120746A9F0FAEC
:101D8C001206A4FF24FE7003021E2C1460131460B0
:101D9C001014604A14604724056003021E2C021EB6
:101DAC002C900123E0FDA3E0F9A3E0FAA3E090015D
:101DBC002FC9F0A3EAF0A3E9F0900127E0F9A3E022
:101DCC00FAA3E0900132C9F0A3EAF0A3E9F0900184
:101DDC0020E0FBA3E0FAA3E0F9121A79803B900112
:101DEC0023E0FDA3E0F9A3E0FAA3E090012FC9F0F2
:101DFC00A3EAF0A3E9F0900127E0F9A3E0FAA3E04D
:101E0C00900132C9F0A3EAF0A3E9F0900120E0FBC5
:101E1C00A3E0FAA3E0F912236D90012AEFF08010F1
:101E2C00900127E0FBA3E0FAA3E0F974011206EAA3
:051E3C0090012AE0FF07
:011E4100227E
:101A7900ED640860037F002290013BEBF0A3EAF0DC
:101A8900A3E9F090013BE0FBA3E475F002120746DD
:101A9900A9F0FA12075CFFAEF07C037DE812071E7D
:101AA900900135EEF0A3EFF090013BE0FBA3E0FAE3
:101AB900A3E0F912075CFFAEF0900137EEF0A3EF57
:101AC900F04E6018900137E0FEA3E0FFD3947DEE5D
:101AD90094005008EF940CEE94004013900132E00A
:101AE900FBA3E0FAA3E0F974031206EA7FFF229050
:101AF9000138E025E0FF900137E033900139F0A388
:101B0900EFF090012FE0FBA3E475F001120746A95D
:101B1900F0FAEF1206EA90012FE0F9A3E0FAA3E048
:101B290090013BC9F0A3EAF0A3E9F090013774FFF3
:101B3900F5F012074645F06044900135E475F0016F
:101B4900120746AFF0FE900132E0FBA3E0FAA3E0F2
:101B5900F9121E4290013BE0FBA3E475F002120763
:101B690046A9F0FAEE8FF01207BF900132E0FBA30D
:101B7900E0FAA3E0F91206A460B17FFF22900139CF
:041B8900A3E004FFD2
:011B8D002235
:0B1E420090013EEBF0A3EAF0A3E9F0F2
:101E4D0074FFA3F0A3F0EF8EF01209151E910000A0
:101E5D001E9600011E9B00021EA000031EA500047D
:101E6D001EAA00051EAF00061EB400071EB900080D
:101E7D001EBE00091ED503E81EEB0BB81EE03A98F6
:101E8D0000001EFA9000A2802B9000A680269000E4
:101E9D00AA80219000AE801C9000B280179000B6F1
:101EAD0080129000BA800D9000BE80089000C28014
:101EBD00039000C6E0FCA3E0FDA3E0FEA3E0FF124B
:101ECD00037B900141EE801F90019BE0FF9001414B
:101EDD00E4801490019CE0FF900141E480099001A1
:101EED009AE0FF900141E4F0A3EFF0801090013EE5
:101EFD00E0FBA3E0FAA3E0F974021206EA900141B7
:051F0D00E0FEA3E0FF6F
:011F120022AC
:0B236D0090012BEBF0A3EAF0A3E9F0D5
:10237800ED640860037F0022E4FFEFC394047480D7
:102388009480502B90012BE0FBA3E0FAA3E0F98F97
:10239800827583001206BDFE90012FE0FBA3E0FAD0
:1023A800A3E0F98F82758300EE1206FC0F80CB90B4
:1023B800012BE0FBA3E0FAA3E0F912075CFF900110
:1023C80035E5F0F0A3EFF0900002120787FDACF0BE
:1023D800900135E0FEA3E0FF900132E0FBA3E0FAB4
:0823E800A3E0F9121F137F04AA
:0123F00022CA
:101F1300900137ECF0A3EDF0A3EBF0A3EAF0A3E913
:011F2300F0CD
:101F240074FFA3F0A3F0EF8EF01209151F4800010F
:101F34001F9500031F79000F1F6400251F66010908
:101F440000001FC3900137A3E090019BF090019023
:101F5400E0FEA3E0FF7B017A01799B1223FB806FF3
:101F64008058900137E064127004A3E06434705F19
:101F74001227928045900137A3E090019CF09001D4
:101F840098E0FEA3E0FF7B017A01799C1223FB8099
:101F940029900137E0FEA3E0FF64054E6006EF647C
:101FA400064E702B90019AEFF0900193E0FEA3E0AF
:101FB400FF7B017A01799A1223FB75C72080109068
:101FC4000139E0FBA3E0FAA3E0F974021206EA90F7
:071FD400013CE0FEA3E0FF69
:011FDB0022E3
:1022E7007B017A01794D900161E024FEFDE434FF22
:0122F700FCEA
:1022F800900120EBF0A3EAF0A3E9F0A3ECF0A3ED42
:01230800F0E4
:10230900A374FFF0A3F090012374FFF5F0120746C0
:1023190045F06045900120E0FBA3E475F001120748
:1023290046A9F0FA1206A4FF900125E06FFFE4FC2C
:10233900FDFE900127120886900127A3A3A3E0FCC4
:1023490090100193FE900126E06E900125F0EC902B
:10235900110193900126F080AD900125E0FEA3E0E4
:03236900FDEDFF88
:01236C00224E
:0B13DE00900120EBF0A3EAF0A3E9F07F
:1013E900A3120892000000001207EC9001271208CE
:1013F900861207EC90012B120886E4900000F0A3F6
:10140900F0900123E0FCA3E0FDA3E0FEA3E0FFC010
:1014190004C005C006C007900000E0FEA3E0780202
:10142900C333CE33CED8F9FF900120E0FBA3E0FA15
:10143900A3E0F98F828E83120856D007D006D00513
:10144900D00412002D900123120886900000E0FEBE
:10145900A3E07802C333CE33CED8F9FF900120E060
:10146900FBA3E0FAA3E0F98F828E8312080C9001A6
:101479002BE0F8A3E0F9A3E0FAA3E0FB1202C450C1
:1014890028900000E0FEA3E07802C333CE33CED823
:10149900F9FF900120E0FBA3E0FAA3E0F98F828E27
:1014A9008312080C90012B805E900000E0FEA3E0FF
:1014B9007802C333CE33CED8F9FF900120E0FBA3E5
:1014C900E0FAA3E0F98F828E8312080C900127E0DD
:1014D900F8A3E0F9A3E0FAA3E0FB1202C4602B40F1
:1014E90029900000E0FEA3E07802C333CE33CED8C2
:1014F900F9FF900120E0FBA3E0FAA3E0F98F828EC7
:101509008312080C900127120886900001E004F06C
:101519007006900000E004F0900000E07004A3E081
:101529006404600302140A900123E0FCA3E0FDA314
:10153900E0FEA3E0FFC004C005C006C00790012B70
:10154900E0FCA3E0FDA3E0FEA3E0FF900127E0F8A3
:10155900A3E0F9A3E0FAA3E0FB12002DA804A90572
:10156900AA06AB07D007D006D005D00412002990EF
:101579000123120886900123E0FCA3E0FDA3E0FE0D
:10158900A3E0FFE4FBFAF978401202279001231245
:101599000886900123E0FCA3E0FDA3E0FEA3E0FFA1
:0115A900221F
:10287B00E4FDFCC3ED9FEC9E5015E4FBFA0BBB0093
:0F288B00010ABA04F8BB4CF50DBD00010C80E446
:01289A00221B
:0F294400AE071FEE600800000000000080F222C6
:10213700E4F593F594F591F592F595F596F5B1F5E6
:10214700B2F5B3F5B4F5C9F5CA9000EA7402F09098
:1021570000EAE0FF14F0EF6010C2B27FC87E001201
:10216700287BD2B212287B80E69000EA7402F090B6
:1021770000EAE0FF14F0EF6010C2B37FC87E0012E0
:10218700287BD2B312287B80E69000EA7404F09093
:1021970000EAE0FF14F0EF602C1229937580FF75B9
:1021A70090FF75C0FFC2B47FE87E0312287BE4F579
:1021B70080F590F5C0D2B412287B7580FF7590FF2B
:0521C70075C0FF80CA95
:0121CC0022F0
:10258D009000011206BDFF7E006401700543C10875
:10259D00800CEF4E700553C1F780037F022290002F
:1025AD00021206BDFFFDC374079D7480F8984008A4
:1025BD0053C1F8EF42C180037F02221206A4FF7EB1
:1025CD00006401700543C120800CEF4E700553C1AE
:0925DD00DF80037F02227F00224F
:0D296100EF6401700443C1202253C1DF2246
:0429930043C110220A
:1028D500E49000EAF0A3F0A37407F07B017A007995
:0928E500EA12258D7F0102296130
:100026000203E7E86480F8E933E83360110460F01E
:10003600ED33EC337009E8FCE9FDEAFEEBFF220440
:1000460060DED3EB9FEA9EE99DE8C2E78CF0C2F73B
:1000560095F0400CE8CCF8E9CDF9EACEFAEBCFFB07
:100066001203B285D0F05804700320D5B3E80470AB
:10007600075002B2D50203F192D5EC0460F7E4CC46
:10008600C0E0C398F8603B94186008400DD0E0FBD0
:100096000203C9E4FBFAC9FC8028E830E406E4C997
:1000A600FBE4CAFCE830E305E4C9CACBFCE8540724
:1000B6006010F8C3E913F9EA13FAEB13FBEC13FC2F
:1000C600D8F130F52FC3E49CFCEF9BFFEE9AFEEDD2
:1000D60099FDD0E0FBEF4E4D4C701222DB0302037C
:1000E600EEEC2CFCEF33FFEE33FEED33FDED30E7A7
:1000F600EB0203C9EF2BFFEE3AFEED39FDD0E0FB34
:1001060050130BBB00030203F1ED13FDEE13FEEFDC
:0801160013FFEC13FC0203C906
:10011E00EC4D6011E8497017ED33EC3304600DE4DB
:10012E00FCFFFEFD22E933E8330470F80203E71208
:10013E0003B258046009E4CC248150062850090209
:10014E0003F12840030203EEC0E0EB4A7044B9808D
:10015E0006D0E0FB0203DDEF4E701CBD8008EBFF06
:10016E00EAFEE9FD80EBE98DF0A4FEE5F002020760
:10017E00E9CDF9EAFEEBFFEF89F0A4FCE5F0CE89BC
:10018E00F0A42EFFE435F0CD89F0A42DFEE435F079
:10019E008067EF4E7005BD80D780C3EF8BF0A4ACA7
:1001AE00F0EE8BF0A42CFCE435F0F8EF8AF0A42CE2
:1001BE00E5F038FCE433CB8DF0A42CFCE5F03BF8F5
:1001CE00EE8AF0A42CFCE5F038F8E433CF89F0A4E5
:1001DE002CFCE5F038CF3400CE89F0A42FFFE5F0EB
:1001EE003EFEE433C98DF0A42EFEE5F039CD8AF043
:1001FE00A42FFFE5F03EFEE43DFD33D0E0FB5007BB
:10020E000BBB000F0203F1EC2CFCEF33FFEE33FEC1
:06021E00ED33FD0203C9EF
:100224000203F1EC5D046005E8590470030203E77E
:100234001203B2580460F6EC4860F2EC7004FDFE60
:10024400FF22C860DB2481C85009C39860025006AD
:100254000203EE9850CAF582E9294B4A7005AB8235
:100264000203DD75F0007C1A7880C3EF9BEE9AEDF3
:1002740099400DC3EF9BFFEE9AFEED99FDE842F025
:10028400DC23ACF0D0E0FFD0E0FED0E0FDAB822078
:10029400E7101BEB60BAEC2CFCEF33FFEE33FEED02
:1002A40033FD0203C9E803F830E705C0F075F00038
:1002B400EF2FFFEE33FEED33FD40B830E7C280AAE6
:1002C40074F8CC6480CCC86480C8F58204604FC3E1
:1002D400EB9FF5F0EA9E42F0E99D42F0E89C45F080
:1002E400603C501DE5825FFFE582D313CB5BCBF40A
:1002F4002B5582FB50280ABA002409B90020088033
:100304001DE5825BFBE582D313CF5FCFF4C3132FCC
:100314005582FF50090EBE00050DBD00010CC3EB54
:100324009FF5F0EA9E42F0E99D42F0E89C45F060BA
:0903340007CC4820E701B3EC22DC
:10033D0075F020800E75F010800575F0087D007E3B
:10034D00007F003392D530D5031207DEEC33401019
:10035D00EF33FFEE33FEED33FDEC33FCD5F0ED2244
:0E036D00E5F0247EA2D513CC92E7CDCEFF2280
:10037B00EDD2E7CD33EC3392D524814006E4FFFE7A
:10038B00FDFC22FCE4CFCECDCC24E0501174FF80D9
:10039B00EDC3CC13CCCD13CDCE13CECF13CF047076
:0703AB00F030D5DE0207DE91
:100B6E00E51024F5F582E43400F583E005102290BB
:100B7E0000F23007039000F5E475F0011208CF0281
:100B8E0006A42000E97F2ED2008018EF540F249087
:100B9E00D43440D4FF30040BEF24BFB41A005003FA
:100BAE002461FFE511600215110514E514700205AC
:100BBE001330070E9000F2E475F0011208CFEF0229
:100BCE0006EA02298E7403D2078003E4C207F510E9
:100BDE009000F21208E6E4F511F513F514E5116034
:100BEE00077F20120BB180F57512FFC201C200C241
:100BFE0002C203C205C206C208120B7DFF700D3081
:100C0E0007057F00120BC2AF14AE1322B4255FC2CC
:100C1E00D5C204120B7DFF24D0B40A00501A75F011
:100C2E000A781130D50508B6FF0106C6A426F620AF
:100C3E00D5047002D20380D924CFB41A00EF500429
:100C4E00C2E5D204020EB4D20180C6D20080C0D258
:100C5E000280BCD2D580BAD20580B47F20120BB1EF
:100C6E002002077401B5110040F1120B6EFF120B3A
:100C7E00B1020BEBD208D2068095120B6EFB120B53
:100C8E006EFA120B6EF94A4B700679B27A0F7BFF31
:100C9E0020022EE511602A7E008E827583001206D8
:100CAE00BD60060EEE651270F0C2D5EBC0E0EAC074
:100CBE00E0E9C0E0EE120F15D0E0F9D0E0FAD0E096
:100CCE00FB1206A4FF60AAEBC0E0EAC0E0E9C0E0B8
:100CDE00120BB1D0E02401F9D0E03400FAD0E0FBE1
:100CEE00E5120460DCD512D98087D20280A2120EE2
:100CFE00F760F7E5127001041203FCA912600DE50E
:100D0E0012600914F512120F9FEF60F3EA30E7023A
:100D1E00F404C3995079EAF425120430E701E4048F
:100D2E00F512800D120EF760C1EA0512251212039C
:100D3E00FCEA900121F030E701E4251204D51204FB
:100D4E0020050114120F15E4C0E0120F9F9001212F
:100D5E00E0601320E70714F0120B99802204F0D004
:100D6E00E014C0E07F00120B99E5126007120B90A1
:100D7E001512800B300503120B90D0E0020BEBD056
:100D8E00E00480C4120EF7609EE512041203FC907C
:100D9E000121EAF0E5122005026001042404120F7D
:010DAE00152F
:100DAF0074FF04C0E0120F9F120B99E51220050289
:100DBF006003120B90D0E0B512E87F45120BA390A1
:100DCF000121E07F2B30E7047F2DF404C0E0120BEC
:100DDF00B1D0E075F00A84C0F0120B9AD0E0120B7C
:100DEF009A020BEB791080027908C206C2088008BC
:100DFF00D2D5790A8004790AC2D5E512047002F5BA
:100E0F0012E4FAFDFEFF120B6EFC7B082001131299
:100E1F000B6EFD7B1030000A120B6EFE120B6EFF75
:100E2F007B20EC3382D592D55013C3E43000069F5C
:100E3F00FFE49EFEE42001039DFDE49CFCE4CBF85F
:100E4F00C201EC700CCFCECDCCE824F8F870F38053
:100E5F0017C3EF33FFEE33FEED33FDEC33FCEB3313
:100E6F00FB994002FB0FD8E9EB300105F8D0E0C445
:100E7F0048B201C0E00AEC4D4E4F78207B0070C2A3
:100E8F00EAB5120040BCC0E0120F17D0F0D0E0203E
:100E9F000104C4C0E0C4B201C0F0120B9AD0F0D567
:100EAF00F0EB020BEB1208EF0C88530DF3580C59B3
:100EBF004C0C55420DF74F0DFF440DFF490C6E437F
:100ECF000E05550D32460D92450CFC470FD2500CB6
:100EDF005D2D0C612E0C842B0C65230C82200FBB17
:100EEF002A0C1D4800000C7CE512B4FF0375120696
:100EFF00120B6EFC120B6EFD120B6EFE120B6EFFC1
:100F0F0090011A020439790AA2D520031430050979
:100F1F00B910020404B9080104A2D5200602500139
:100F2F00042002689202B511005034C0E07F2030D7
:100F3F0003197F30A20272067205500F120F6EC294
:100F4F0002C206C205C2087F30800F300503E9C018
:100F5F00E0120BB1300503D0E0F9D0E0B511CC3081
:100F6F0005177F30B9100C120BB17F583004077F73
:100F7F00788003B90803120BB13002057F2D020BE5
:100F8F00B17F202008F87F2B2006F322920280CF1A
:100F9F007F00B40700500B241AF582E43401F58367
:100FAF00E0FF22286E756C6C2900D201120B6E3097
:100FBF0001F8C201781130D50108F6020C1D2D5031
:100FCF00434958120B6E2403B405004001E4900FFF
:100FDF00CD93120BA2743A120BA2D2037511040215
:020FEF000DF300
:1003B200E9D2E7C933E833F892D5EDD2E7CD33EC91
:0703C20033FC5002B2D5220A
:1003C900EC30E7100FBF000C0EBE00080DBD000495
:1003D9000BEB6014A2D5EB13FCED92E7FD2274FF41
:1003E900FCFDFEFF22E480F8A2D574FF13FC7D809A
:0303F900E480EFAE
:1003FC00F920E73624F950037907E4F42402FBE5ED
:10040C0082158270021583DBF6E024FB501BE96039
:10041C0014E4F0E582158270021583E004F0B40A4E
:0D042C0008E4F0D9EE7401F00A22C2D522D6
:10043900ED33EC3392D5FA602AB4FF33EDC2E77B92
:10044900FF60067A04795EE4227A04796720D5048C
:100459007A047962224E614E002B494E46002D499D
:100469004E4600E47A08F0A3DAFC7B00740722C048
:1004790083C082ECC0E0EDC0E0EEC0E0EFC0E0EA8E
:1004890075F010A4CAABF075F04DA42BFBE435F060
:10049900FCEA2410FAEB34C5FBEC34D9FCEDC2E7D5
:1004A900FF75F056A4F42411C5F0F434C58FF0A4F7
:1004B9002AE5F03BE43CF020E71412056ED0E0FF9A
:1004C900D0E0FED0E0FDD0E0FC1202278014F40455
:1004D90012056ED0E0FFD0E0FED0E0FDD0E0FC12C6
:1004E900011ED082D083E0FAEDD2E7CD33EC33247C
:1004F90082FBE4C3CF33CFCE33CECD33CD33DBF361
:100509007B0775F00A846004F0A31B0AE5F0F0A3E9
:100519008FF0740AA4FFACF08EF0740AA42CFEAC20
:10052900F050010C8DF0740AA42CFDE435F0F0A311
:05053900DBDE74072267
:10053E003F8000004120000042C80000447A0000C5
:10054E00461C400047C35000497424004B18968047
:10055E004CBEBC205A0E1BCA6753C21C749DC5AE3E
:10056E00FB60065407601C232312059CEB54386075
:10057E000912058812059712011EECF8EDF9EEFA34
:10058E00EFCB22EB12059780F1543803241C900513
:10059E003EFE93FC0EEE93FD0EEE930ECE93FF22D7
:0300000002225B7E
:0C225B00787FE4F6D8FD7581210222A2F4
:1005AE00E709F608DFFA8046E709F208DFFA803E2F
:1005BE0088828C83E709F0A3DFFA8032E309F6081C
:1005CE00DFFA8078E309F208DFFA807088828C8384
:1005DE00E309F0A3DFFA806489828A83E0A3F60838
:1005EE00DFFA805889828A83E0A3F208DFFA804C12
:1005FE0080D280FA80C680D4806980F280338010E9
:10060E0080A680EA809A80A880DA80E280CA803351
:10061E0089828A83ECFAE493A3C8C582C8CCC583C9
:10062E00CCF0A3C8C582C8CCC583CCDFE9DEE78099
:10063E000D89828A83E493A3F608DFF9ECFAA9F018
:10064E00EDFB2289828A83ECFAE0A3C8C582C8CC6E
:10065E00C583CCF0A3C8C582C8CCC583CCDFEADE87
:10066E00E880DB89828A83E493A3F208DFF980CCE9
:10067E0088F0EF60010E4E60C388F0ED2402B404E2
:10068E000050B9F582EB2402B4040050AF23234589
:06069E0082239005FE73AB
:1006A400BB010689828A83E0225002E722BBFE0254
:0906B400E32289828A83E4932287
:1006BD00BB010CE58229F582E5833AF583E02250F2
:1006CD0006E92582F8E622BBFE06E92582F8E2223C
:0D06DD00E58229F582E5833AF583E4932256
:1006EA00BB010689828A83F0225002F722BBFE01EF
:0206FA00F322E9
:1006FC00F8BB010DE58229F582E5833AF583E8F034
:10070C00225006E92582C8F622BBFE05E92582C8DF
:02071C00F222C7
:10071E00EF8DF0A4A8F0CF8CF0A428CE8DF0A42EEF
:02072E00FE22A9
:10073000C5F0F8A3E028F0C5F0F8E5821582700254
:060740001583E038F022F1
:10074600A3F8E0C5F025F0F0E58215827002158366
:06075600E0C838F0E822C3
:10075C00BB010A89828A83E0F5F0A3E02250068768
:10076C00F009E71922BBFE07E3F5F009E31922892A
:0B077C00828A83E493F5F0740193225D
:10078700BB0110E58229F582E5833AF583E0F5F0B0
:10079700A3E0225009E92582F886F008E622BBFE8D
:1007A7000AE92582F8E2F5F008E222E5832AF583D3
:0807B700E993F5F0A3E9932298
:1007BF00BB010A89828A83F0E5F0A3F0225006F785
:0F07CF0009A7F01922BBFE06F3E5F009F3192282
:0E07DE00C3E49FFFE49EFEE49DFDE49CFC222C
:1007EC00BB010789828A83020AF85005E9F8020ADC
:1007FC00ECBBFE05E9F8020B0489828A83020B101C
:10080C00BB010DE58229F582E5833AF583020AF8EE
:10081C005007E92582F8020AECBBFE07E92582F8AD
:10082C00020B04E58229F582E5833AF583020B106D
:10083C00BB010789828A830208865005E9F8020BFE
:0A084C0056BBFE05E9F8020B62221C
:10085600BB010DE58229F582E5833AF583020B2D6E
:100866005007E92582F8020B20BBFE07E92582F82E
:10087600020B39E58229F582E5833AF583020B46B8
:0C088600ECF0A3EDF0A3EEF0A3EFF022E5
:10089200A8828583F0D083D0821208A91208A912F7
:1008A20008A91208A9E473E493A3C583C5F0C5831C
:1008B200C8C582C8F0A3C583C5F0C583C8C582C8B0
:0108C2002213
:0C08C300A42582F582E5F03583F5832240
:1008CF00F8E0FBA3A3E0F925F0F0E58215827002B2
:0708DF001583E0FA38F02256
:0908E600EBF0A3EAF0A3E9F02213
:1008EF00D083D082F8E4937012740193700DA3A398
:1008FF0093F8740193F5828883E4737402936860AC
:06090F00EFA3A3A380DFAB
:10091500D083D082F8E4937012740193700DA3A371
:1009250093F8740193F5828883E473740293B5F0A8
:0D093500067403936860E9A3A3A3A380D810
:10094200E3F5F009E208B5F06BDFF58067E3F5F057
:1009520009E608B5F05EDFF5805A87F009E608B5CA
:10096200F052DFF6804E87F009E208B5F046DFF676
:10097200804288828C8387F009E0A3B5F036DFF6E7
:10098200803288828C8387F009E493A3B5F025DF57
:10099200F5802188828C83E3F5F009E0A3B5F01499
:1009A200DFF5801088828C83E3F5F009E493A3B528
:1009B200F002DFF4020A71808780E9809080D4809F
:1009C2003E8015806E807E809D80B7808D80A38062
:1009D200518074803C020A7D89828A83ECFAE49316
:1009E200F5F0A3C8C582C8CCC583CCE493A3C8C51F
:1009F20082C8CCC583CCB5F076DFE3DEE1807089B6
:100A0200828A83E493F5F0A3E208B5F062DFF48012
:100A12005E89828A83E0F5F0A3E608B5F051DFF53E
:100A2200804D89828A83E0F5F0A3E208B5F040DFC9
:100A3200F5803C89828A83E493F5F0A3E608B5F059
:100A42002EDFF4802A8002805789828A83ECFAE4BE
:100A520093F5F0A3C8C582C8CCC583CCE0A3C8C5B2
:100A620082C8CCC583CCB5F006DFE4DEE280007F2D
:100A7200FFB5F0020F2240027F012289828A83ECB5
:100A8200FAE0F5F0A3C8C582C8CCC583CCE0A3C800
:100A9200C582C8CCC583CCB5F0D5DFE5DEE380CF17
:100AA20089828A83ECFAE0F5F0A3C8C582C8CCC576
:100AB20083CCE493A3C8C582C8CCC583CCB5F0AFC0
:100AC200DFE4DEE280A988F0EF60010E4E60ABED5C
:100AD2002402B404005098F582EB2402B4040050BE
:0A0AE2008E23234582239009B97387
:1022670002209BE493A3F8E493A34003F68001F2D2
:1022770008DFF48029E493A3F85407240CC8C33378
:10228700C4540F4420C8834004F456800146F6DF47
:10229700E4800B0102040810204080901B8EE47E2E
:1022A700019360BCA3FF543F30E509541FFEE4933C
:1022B700A360010ECF54C025E060A840B8E493A303
:1022C700FAE493A3F8E493A3C8C582C8CAC583CA2E
:1022D700F0A3C8C582C8CAC583CADFE9DEE780BEE6
:011C8900005A
:0C0AEC00E6FC08E6FD08E6FE08E6FF2236
:0C0AF800E0FCA3E0FDA3E0FEA3E0FF2271
:0C0B0400E2FC08E2FD08E2FE08E2FF222D
:100B1000E493FC740193FD740293FE740393FF222B
:0D0B2000E6FB08E6F908E6FA08E6CBF82245
:0C0B2D00E0F8A3E0F9A3E0FAA3E0FB224B
:0D0B3900E2FB08E2F908E2FA08E2CBF8223C
:100B4600E493F8740193F9740293FA740393FB2205
:0C0B5600ECF608EDF608EEF608EFF622CB
:0C0B6200ECF208EDF208EEF208EFF222CF
:00000001FF
